{
  "_format": "hh-sol-artifact-1",
  "contractName": "NFT",
  "sourceName": "contracts/NFT.sol",
  "abi": [
    {
      "inputs": [
        {
          "internalType": "address",
          "name": "marketplaceAddress",
          "type": "address"
        }
      ],
      "stateMutability": "nonpayable",
      "type": "constructor"
    },
    {
      "anonymous": false,
      "inputs": [
        {
          "indexed": true,
          "internalType": "address",
          "name": "owner",
          "type": "address"
        },
        {
          "indexed": true,
          "internalType": "address",
          "name": "approved",
          "type": "address"
        },
        {
          "indexed": true,
          "internalType": "uint256",
          "name": "tokenId",
          "type": "uint256"
        }
      ],
      "name": "Approval",
      "type": "event"
    },
    {
      "anonymous": false,
      "inputs": [
        {
          "indexed": true,
          "internalType": "address",
          "name": "owner",
          "type": "address"
        },
        {
          "indexed": true,
          "internalType": "address",
          "name": "operator",
          "type": "address"
        },
        {
          "indexed": false,
          "internalType": "bool",
          "name": "approved",
          "type": "bool"
        }
      ],
      "name": "ApprovalForAll",
      "type": "event"
    },
    {
      "anonymous": false,
      "inputs": [
        {
          "indexed": true,
          "internalType": "address",
          "name": "from",
          "type": "address"
        },
        {
          "indexed": true,
          "internalType": "address",
          "name": "to",
          "type": "address"
        },
        {
          "indexed": true,
          "internalType": "uint256",
          "name": "tokenId",
          "type": "uint256"
        }
      ],
      "name": "Transfer",
      "type": "event"
    },
    {
      "inputs": [
        {
          "internalType": "address",
          "name": "to",
          "type": "address"
        },
        {
          "internalType": "uint256",
          "name": "tokenId",
          "type": "uint256"
        }
      ],
      "name": "approve",
      "outputs": [],
      "stateMutability": "nonpayable",
      "type": "function"
    },
    {
      "inputs": [
        {
          "internalType": "address",
          "name": "owner",
          "type": "address"
        }
      ],
      "name": "balanceOf",
      "outputs": [
        {
          "internalType": "uint256",
          "name": "",
          "type": "uint256"
        }
      ],
      "stateMutability": "view",
      "type": "function"
    },
    {
      "inputs": [
        {
          "internalType": "string",
          "name": "tokenURI",
          "type": "string"
        }
      ],
      "name": "createToken",
      "outputs": [
        {
          "internalType": "uint256",
          "name": "",
          "type": "uint256"
        }
      ],
      "stateMutability": "nonpayable",
      "type": "function"
    },
    {
      "inputs": [
        {
          "internalType": "uint256",
          "name": "tokenId",
          "type": "uint256"
        }
      ],
      "name": "getApproved",
      "outputs": [
        {
          "internalType": "address",
          "name": "",
          "type": "address"
        }
      ],
      "stateMutability": "view",
      "type": "function"
    },
    {
      "inputs": [
        {
          "internalType": "address",
          "name": "owner",
          "type": "address"
        },
        {
          "internalType": "address",
          "name": "operator",
          "type": "address"
        }
      ],
      "name": "isApprovedForAll",
      "outputs": [
        {
          "internalType": "bool",
          "name": "",
          "type": "bool"
        }
      ],
      "stateMutability": "view",
      "type": "function"
    },
    {
      "inputs": [
        {
          "internalType": "bool",
          "name": "value",
          "type": "bool"
        },
        {
          "internalType": "uint256",
          "name": "tokenId",
          "type": "uint256"
        }
      ],
      "name": "modifyRental",
      "outputs": [],
      "stateMutability": "nonpayable",
      "type": "function"
    },
    {
      "inputs": [],
      "name": "name",
      "outputs": [
        {
          "internalType": "string",
          "name": "",
          "type": "string"
        }
      ],
      "stateMutability": "view",
      "type": "function"
    },
    {
      "inputs": [
        {
          "internalType": "uint256",
          "name": "tokenId",
          "type": "uint256"
        }
      ],
      "name": "ownerOf",
      "outputs": [
        {
          "internalType": "address",
          "name": "",
          "type": "address"
        }
      ],
      "stateMutability": "view",
      "type": "function"
    },
    {
      "inputs": [
        {
          "internalType": "address",
          "name": "from",
          "type": "address"
        },
        {
          "internalType": "address",
          "name": "to",
          "type": "address"
        },
        {
          "internalType": "uint256",
          "name": "tokenId",
          "type": "uint256"
        }
      ],
      "name": "performTokenTransfer",
      "outputs": [],
      "stateMutability": "nonpayable",
      "type": "function"
    },
    {
      "inputs": [
        {
          "internalType": "uint256",
          "name": "",
          "type": "uint256"
        }
      ],
      "name": "rental",
      "outputs": [
        {
          "internalType": "bool",
          "name": "",
          "type": "bool"
        }
      ],
      "stateMutability": "view",
      "type": "function"
    },
    {
      "inputs": [
        {
          "internalType": "address",
          "name": "from",
          "type": "address"
        },
        {
          "internalType": "address",
          "name": "to",
          "type": "address"
        },
        {
          "internalType": "uint256",
          "name": "tokenId",
          "type": "uint256"
        }
      ],
      "name": "safeTransferFrom",
      "outputs": [],
      "stateMutability": "nonpayable",
      "type": "function"
    },
    {
      "inputs": [
        {
          "internalType": "address",
          "name": "from",
          "type": "address"
        },
        {
          "internalType": "address",
          "name": "to",
          "type": "address"
        },
        {
          "internalType": "uint256",
          "name": "tokenId",
          "type": "uint256"
        },
        {
          "internalType": "bytes",
          "name": "_data",
          "type": "bytes"
        }
      ],
      "name": "safeTransferFrom",
      "outputs": [],
      "stateMutability": "nonpayable",
      "type": "function"
    },
    {
      "inputs": [
        {
          "internalType": "address",
          "name": "operator",
          "type": "address"
        },
        {
          "internalType": "bool",
          "name": "approved",
          "type": "bool"
        }
      ],
      "name": "setApprovalForAll",
      "outputs": [],
      "stateMutability": "nonpayable",
      "type": "function"
    },
    {
      "inputs": [
        {
          "internalType": "bytes4",
          "name": "interfaceId",
          "type": "bytes4"
        }
      ],
      "name": "supportsInterface",
      "outputs": [
        {
          "internalType": "bool",
          "name": "",
          "type": "bool"
        }
      ],
      "stateMutability": "view",
      "type": "function"
    },
    {
      "inputs": [],
      "name": "symbol",
      "outputs": [
        {
          "internalType": "string",
          "name": "",
          "type": "string"
        }
      ],
      "stateMutability": "view",
      "type": "function"
    },
    {
      "inputs": [
        {
          "internalType": "uint256",
          "name": "tokenId",
          "type": "uint256"
        }
      ],
      "name": "tokenURI",
      "outputs": [
        {
          "internalType": "string",
          "name": "",
          "type": "string"
        }
      ],
      "stateMutability": "view",
      "type": "function"
    },
    {
      "inputs": [
        {
          "internalType": "address",
          "name": "from",
          "type": "address"
        },
        {
          "internalType": "address",
          "name": "to",
          "type": "address"
        },
        {
          "internalType": "uint256",
          "name": "tokenId",
          "type": "uint256"
        }
      ],
      "name": "transferFrom",
      "outputs": [],
      "stateMutability": "nonpayable",
      "type": "function"
    }
  ],
  "bytecode": "0x60806040523480156200001157600080fd5b5060405162001a8938038062001a89833981016040819052620000349162000167565b604080518082018252600a8152691491539513155593919560b21b60208083019182528351808501909452600384526229262760e91b9084015281519192916200008191600091620000c1565b50805162000097906001906020840190620000c1565b5050600880546001600160a01b0319166001600160a01b03939093169290921790915550620001d4565b828054620000cf9062000197565b90600052602060002090601f016020900481019282620000f357600085556200013e565b82601f106200010e57805160ff19168380011785556200013e565b828001600101855582156200013e579182015b828111156200013e57825182559160200191906001019062000121565b506200014c92915062000150565b5090565b5b808211156200014c576000815560010162000151565b60006020828403121562000179578081fd5b81516001600160a01b038116811462000190578182fd5b9392505050565b600181811c90821680620001ac57607f821691505b60208210811415620001ce57634e487b7160e01b600052602260045260246000fd5b50919050565b6118a580620001e46000396000f3fe608060405234801561001057600080fd5b506004361061010b5760003560e01c80636352211e116100a2578063a22cb46511610071578063a22cb46514610238578063a2932c531461024b578063b88d4fde1461025e578063c87b56dd14610271578063e985e9c51461028457600080fd5b80636352211e146101e757806365c13850146101fa57806370a082311461021d57806395d89b411461023057600080fd5b806323b872dd116100de57806323b872dd1461018d57806332b95aa9146101a057806342842e0e146101b357806345576f94146101c657600080fd5b806301ffc9a71461011057806306fdde0314610138578063081812fc1461014d578063095ea7b314610178575b600080fd5b61012361011e366004611557565b6102c0565b60405190151581526020015b60405180910390f35b610140610312565b60405161012f9190611685565b61016061015b3660046115d5565b6103a4565b6040516001600160a01b03909116815260200161012f565b61018b610186366004611513565b610431565b005b61018b61019b366004611436565b610547565b61018b6101ae36600461153c565b610578565b61018b6101c1366004611436565b6105f1565b6101d96101d436600461158f565b61060c565b60405190815260200161012f565b6101606101f53660046115d5565b610653565b6101236102083660046115d5565b60096020526000908152604090205460ff1681565b6101d961022b3660046113ea565b6106ca565b610140610751565b61018b6102463660046114ea565b610760565b61018b610259366004611436565b610825565b61018b61026c366004611471565b61087f565b61014061027f3660046115d5565b6108b7565b610123610292366004611404565b6001600160a01b03918216600090815260056020908152604080832093909416825291909152205460ff1690565b60006001600160e01b031982166380ac58cd60e01b14806102f157506001600160e01b03198216635b5e139f60e01b145b8061030c57506301ffc9a760e01b6001600160e01b03198316145b92915050565b606060008054610321906117aa565b80601f016020809104026020016040519081016040528092919081815260200182805461034d906117aa565b801561039a5780601f1061036f5761010080835404028352916020019161039a565b820191906000526020600020905b81548152906001019060200180831161037d57829003601f168201915b5050505050905090565b60006103af82610a2e565b6104155760405162461bcd60e51b815260206004820152602c60248201527f4552433732313a20617070726f76656420717565727920666f72206e6f6e657860448201526b34b9ba32b73a103a37b5b2b760a11b60648201526084015b60405180910390fd5b506000908152600460205260409020546001600160a01b031690565b600061043c82610653565b9050806001600160a01b0316836001600160a01b031614156104aa5760405162461bcd60e51b815260206004820152602160248201527f4552433732313a20617070726f76616c20746f2063757272656e74206f776e656044820152603960f91b606482015260840161040c565b336001600160a01b03821614806104c657506104c68133610292565b6105385760405162461bcd60e51b815260206004820152603860248201527f4552433732313a20617070726f76652063616c6c6572206973206e6f74206f7760448201527f6e6572206e6f7220617070726f76656420666f7220616c6c0000000000000000606482015260840161040c565b6105428383610a4b565b505050565b6105513382610ab9565b61056d5760405162461bcd60e51b815260040161040c906116ea565b610542838383610b9f565b6008546001600160a01b031633146105d25760405162461bcd60e51b815260206004820152601e60248201527f43616c6c6572206d75737420626520636f6e7472616374416464726573730000604482015260640161040c565b6000908152600960205260409020805460ff1916911515919091179055565b6105428383836040518060200160405280600081525061087f565b600061061c600780546001019055565b600061062760075490565b90506106333382610d4a565b61063d8184610e89565b60085461030c906001600160a01b031682610431565b6000818152600260205260408120546001600160a01b03168061030c5760405162461bcd60e51b815260206004820152602960248201527f4552433732313a206f776e657220717565727920666f72206e6f6e657869737460448201526832b73a103a37b5b2b760b91b606482015260840161040c565b60006001600160a01b0382166107355760405162461bcd60e51b815260206004820152602a60248201527f4552433732313a2062616c616e636520717565727920666f7220746865207a65604482015269726f206164647265737360b01b606482015260840161040c565b506001600160a01b031660009081526003602052604090205490565b606060018054610321906117aa565b6001600160a01b0382163314156107b95760405162461bcd60e51b815260206004820152601960248201527f4552433732313a20617070726f766520746f2063616c6c657200000000000000604482015260640161040c565b3360008181526005602090815260408083206001600160a01b03871680855290835292819020805460ff191686151590811790915590519081529192917f17307eab39ab6107e8899845ad3d59bd9653f200f220920489ca2b5937696c31910160405180910390a35050565b6008546001600160a01b0316331461056d5760405162461bcd60e51b815260206004820152601e60248201527f43616c6c6572206d75737420626520636f6e7472616374416464726573730000604482015260640161040c565b6108893383610ab9565b6108a55760405162461bcd60e51b815260040161040c906116ea565b6108b184848484610f14565b50505050565b60606108c282610a2e565b6109285760405162461bcd60e51b815260206004820152603160248201527f45524337323155524953746f726167653a2055524920717565727920666f72206044820152703737b732bc34b9ba32b73a103a37b5b2b760791b606482015260840161040c565b60008281526006602052604081208054610941906117aa565b80601f016020809104026020016040519081016040528092919081815260200182805461096d906117aa565b80156109ba5780601f1061098f576101008083540402835291602001916109ba565b820191906000526020600020905b81548152906001019060200180831161099d57829003601f168201915b5050505050905060006109d860408051602081019091526000815290565b90508051600014156109eb575092915050565b815115610a1d578082604051602001610a05929190611619565b60405160208183030381529060405292505050919050565b610a2684610f47565b949350505050565b6000908152600260205260409020546001600160a01b0316151590565b600081815260046020526040902080546001600160a01b0319166001600160a01b0384169081179091558190610a8082610653565b6001600160a01b03167f8c5be1e5ebec7d5bd14f71427d1e84f3dd0314c0f7b2291e5b200ac8c7c3b92560405160405180910390a45050565b6000610ac482610a2e565b610b255760405162461bcd60e51b815260206004820152602c60248201527f4552433732313a206f70657261746f7220717565727920666f72206e6f6e657860448201526b34b9ba32b73a103a37b5b2b760a11b606482015260840161040c565b6000610b3083610653565b9050806001600160a01b0316846001600160a01b03161480610b6b5750836001600160a01b0316610b60846103a4565b6001600160a01b0316145b80610a2657506001600160a01b0380821660009081526005602090815260408083209388168352929052205460ff16610a26565b826001600160a01b0316610bb282610653565b6001600160a01b031614610c1a5760405162461bcd60e51b815260206004820152602960248201527f4552433732313a207472616e73666572206f6620746f6b656e2074686174206960448201526839903737ba1037bbb760b91b606482015260840161040c565b6001600160a01b038216610c7c5760405162461bcd60e51b8152602060048201526024808201527f4552433732313a207472616e7366657220746f20746865207a65726f206164646044820152637265737360e01b606482015260840161040c565b610c8783838361101f565b610c92600082610a4b565b6001600160a01b0383166000908152600360205260408120805460019290610cbb908490611767565b90915550506001600160a01b0382166000908152600360205260408120805460019290610ce990849061173b565b909155505060008181526002602052604080822080546001600160a01b0319166001600160a01b0386811691821790925591518493918716917fddf252ad1be2c89b69c2b068fc378daa952ba7f163c4a11628f55a4df523b3ef91a4505050565b6001600160a01b038216610da05760405162461bcd60e51b815260206004820181905260248201527f4552433732313a206d696e7420746f20746865207a65726f2061646472657373604482015260640161040c565b610da981610a2e565b15610df65760405162461bcd60e51b815260206004820152601c60248201527f4552433732313a20746f6b656e20616c7265616479206d696e74656400000000604482015260640161040c565b610e026000838361101f565b6001600160a01b0382166000908152600360205260408120805460019290610e2b90849061173b565b909155505060008181526002602052604080822080546001600160a01b0319166001600160a01b03861690811790915590518392907fddf252ad1be2c89b69c2b068fc378daa952ba7f163c4a11628f55a4df523b3ef908290a45050565b610e9282610a2e565b610ef55760405162461bcd60e51b815260206004820152602e60248201527f45524337323155524953746f726167653a2055524920736574206f66206e6f6e60448201526d32bc34b9ba32b73a103a37b5b2b760911b606482015260840161040c565b60008281526006602090815260409091208251610542928401906112af565b610f1f848484610b9f565b610f2b84848484611088565b6108b15760405162461bcd60e51b815260040161040c90611698565b6060610f5282610a2e565b610fb65760405162461bcd60e51b815260206004820152602f60248201527f4552433732314d657461646174613a2055524920717565727920666f72206e6f60448201526e3732bc34b9ba32b73a103a37b5b2b760891b606482015260840161040c565b6000610fcd60408051602081019091526000815290565b90506000815111610fed5760405180602001604052806000815250611018565b80610ff784611195565b604051602001611008929190611619565b6040516020818303038152906040525b9392505050565b60008181526009602052604090205460ff16156105425760405162461bcd60e51b815260206004820152602160248201527f52656e7461626c654e46543a207468697320746f6b656e2069732072656e74656044820152601960fa1b606482015260840161040c565b60006001600160a01b0384163b1561118a57604051630a85bd0160e11b81526001600160a01b0385169063150b7a02906110cc903390899088908890600401611648565b602060405180830381600087803b1580156110e657600080fd5b505af1925050508015611116575060408051601f3d908101601f1916820190925261111391810190611573565b60015b611170573d808015611144576040519150601f19603f3d011682016040523d82523d6000602084013e611149565b606091505b5080516111685760405162461bcd60e51b815260040161040c90611698565b805181602001fd5b6001600160e01b031916630a85bd0160e11b149050610a26565b506001949350505050565b6060816111b95750506040805180820190915260018152600360fc1b602082015290565b8160005b81156111e357806111cd816117e5565b91506111dc9050600a83611753565b91506111bd565b60008167ffffffffffffffff81111561120c57634e487b7160e01b600052604160045260246000fd5b6040519080825280601f01601f191660200182016040528015611236576020820181803683370190505b5090505b8415610a265761124b600183611767565b9150611258600a86611800565b61126390603061173b565b60f81b81838151811061128657634e487b7160e01b600052603260045260246000fd5b60200101906001600160f81b031916908160001a9053506112a8600a86611753565b945061123a565b8280546112bb906117aa565b90600052602060002090601f0160209004810192826112dd5760008555611323565b82601f106112f657805160ff1916838001178555611323565b82800160010185558215611323579182015b82811115611323578251825591602001919060010190611308565b5061132f929150611333565b5090565b5b8082111561132f5760008155600101611334565b600067ffffffffffffffff8084111561136357611363611840565b604051601f8501601f19908116603f0116810190828211818310171561138b5761138b611840565b816040528093508581528686860111156113a457600080fd5b858560208301376000602087830101525050509392505050565b80356001600160a01b03811681146113d557600080fd5b919050565b803580151581146113d557600080fd5b6000602082840312156113fb578081fd5b611018826113be565b60008060408385031215611416578081fd5b61141f836113be565b915061142d602084016113be565b90509250929050565b60008060006060848603121561144a578081fd5b611453846113be565b9250611461602085016113be565b9150604084013590509250925092565b60008060008060808587031215611486578081fd5b61148f856113be565b935061149d602086016113be565b925060408501359150606085013567ffffffffffffffff8111156114bf578182fd5b8501601f810187136114cf578182fd5b6114de87823560208401611348565b91505092959194509250565b600080604083850312156114fc578182fd5b611505836113be565b915061142d602084016113da565b60008060408385031215611525578182fd5b61152e836113be565b946020939093013593505050565b6000806040838503121561154e578182fd5b61152e836113da565b600060208284031215611568578081fd5b813561101881611856565b600060208284031215611584578081fd5b815161101881611856565b6000602082840312156115a0578081fd5b813567ffffffffffffffff8111156115b6578182fd5b8201601f810184136115c6578182fd5b610a2684823560208401611348565b6000602082840312156115e6578081fd5b5035919050565b6000815180845261160581602086016020860161177e565b601f01601f19169290920160200192915050565b6000835161162b81846020880161177e565b83519083019061163f81836020880161177e565b01949350505050565b6001600160a01b038581168252841660208201526040810183905260806060820181905260009061167b908301846115ed565b9695505050505050565b60208152600061101860208301846115ed565b60208082526032908201527f4552433732313a207472616e7366657220746f206e6f6e20455243373231526560408201527131b2b4bb32b91034b6b83632b6b2b73a32b960711b606082015260800190565b60208082526031908201527f4552433732313a207472616e736665722063616c6c6572206973206e6f74206f6040820152701ddb995c881b9bdc88185c1c1c9bdd9959607a1b606082015260800190565b6000821982111561174e5761174e611814565b500190565b6000826117625761176261182a565b500490565b60008282101561177957611779611814565b500390565b60005b83811015611799578181015183820152602001611781565b838111156108b15750506000910152565b600181811c908216806117be57607f821691505b602082108114156117df57634e487b7160e01b600052602260045260246000fd5b50919050565b60006000198214156117f9576117f9611814565b5060010190565b60008261180f5761180f61182a565b500690565b634e487b7160e01b600052601160045260246000fd5b634e487b7160e01b600052601260045260246000fd5b634e487b7160e01b600052604160045260246000fd5b6001600160e01b03198116811461186c57600080fd5b5056fea2646970667358221220c80c208b7204e60467774767ece29b03f31a7df196f5a9ccefa9f98b341ea4d064736f6c63430008040033",
  "linkReferences": {},
  "deployedLinkReferences": {}
}